{
  "contractName": "Manager",
  "abi": [
    {
      "inputs": [],
      "stateMutability": "nonpayable",
      "type": "constructor"
    },
    {
      "anonymous": false,
      "inputs": [],
      "name": "TicketCreated",
      "type": "event"
    },
    {
      "inputs": [],
      "name": "createTicket",
      "outputs": [],
      "stateMutability": "nonpayable",
      "type": "function"
    },
    {
      "inputs": [],
      "name": "showAllTickets",
      "outputs": [],
      "stateMutability": "nonpayable",
      "type": "function"
    },
    {
      "inputs": [],
      "name": "showTicketsByAddress",
      "outputs": [],
      "stateMutability": "nonpayable",
      "type": "function"
    },
    {
      "inputs": [],
      "name": "transferTicket",
      "outputs": [],
      "stateMutability": "nonpayable",
      "type": "function"
    },
    {
      "inputs": [],
      "name": "changeTicketPrice",
      "outputs": [],
      "stateMutability": "nonpayable",
      "type": "function"
    },
    {
      "inputs": [],
      "name": "showStatistics",
      "outputs": [],
      "stateMutability": "nonpayable",
      "type": "function"
    }
  ],
  "bytecode": "0x608060405234801561001057600080fd5b506113bf806100206000396000f3fe60806040523480156200001157600080fd5b50600436106200006a5760003560e01c806312533498146200006f5780631d271709146200007b578063906802431462000087578063b31616471462000093578063f07868b6146200009f578063ff03b17c14620000ab575b600080fd5b62000079620000b7565b005b62000085620000b9565b005b62000091620001ed565b005b6200009d620001ef565b005b620000a9620001f1565b005b620000b5620001f3565b005b565b60006040518060400160405280600781526020017f7469636b657431000000000000000000000000000000000000000000000000008152509050600042905060006040518060400160405280600b81526020017f6465736372697074696f6e000000000000000000000000000000000000000000815250905060008060008585858585856040516200014b90620001f5565b6200015c96959493929190620003da565b604051809103906000f08015801562000179573d6000803e3d6000fd5b506000806101000a81548173ffffffffffffffffffffffffffffffffffffffff021916908373ffffffffffffffffffffffffffffffffffffffff1602179055507f0398f64ad969a12f8dac91187924993dbb7c870845d189afeb6cd2b42fb3897160405160405180910390a1505050505050565b565b565b565b565b610f34806200045683390190565b600081519050919050565b600082825260208201905092915050565b60005b838110156200023f57808201518184015260208101905062000222565b60008484015250505050565b6000601f19601f8301169050919050565b6000620002698262000203565b6200027581856200020e565b9350620002878185602086016200021f565b62000292816200024b565b840191505092915050565b6000819050919050565b620002b2816200029d565b82525050565b7f4e487b7100000000000000000000000000000000000000000000000000000000600052602160045260246000fd5b60038110620002fb57620002fa620002b8565b5b50565b60008190506200030e82620002e7565b919050565b60006200032082620002fe565b9050919050565b620003328162000313565b82525050565b600381106200034c576200034b620002b8565b5b50565b60008190506200035f8262000338565b919050565b600062000371826200034f565b9050919050565b620003838162000364565b82525050565b600281106200039d576200039c620002b8565b5b50565b6000819050620003b08262000389565b919050565b6000620003c282620003a0565b9050919050565b620003d481620003b5565b82525050565b600060c0820190508181036000830152620003f681896200025c565b9050620004076020830188620002a7565b81810360408301526200041b81876200025c565b90506200042c606083018662000327565b6200043b608083018562000378565b6200044a60a0830184620003c9565b97965050505050505056fe60806040523480156200001157600080fd5b5060405162000f3438038062000f348339818101604052810190620000379190620003c0565b8560019081620000489190620006db565b50846002819055508360039081620000619190620006db565b5082600460006101000a81548160ff021916908360028111156200008a5762000089620007c2565b5b021790555081600660006101000a81548160ff02191690836002811115620000b757620000b6620007c2565b5b021790555080600660016101000a81548160ff02191690836001811115620000e457620000e3620007c2565b5b021790555033600660026101000a81548173ffffffffffffffffffffffffffffffffffffffff021916908373ffffffffffffffffffffffffffffffffffffffff1602179055506200013a6200014660201b60201c565b50505050505062000833565b4260405160200162000159919062000816565b6040516020818303038152906040528051906020012060001c600081905550565b6000604051905090565b600080fd5b600080fd5b600080fd5b600080fd5b6000601f19601f8301169050919050565b7f4e487b7100000000000000000000000000000000000000000000000000000000600052604160045260246000fd5b620001e38262000198565b810181811067ffffffffffffffff82111715620002055762000204620001a9565b5b80604052505050565b60006200021a6200017a565b9050620002288282620001d8565b919050565b600067ffffffffffffffff8211156200024b576200024a620001a9565b5b620002568262000198565b9050602081019050919050565b60005b838110156200028357808201518184015260208101905062000266565b60008484015250505050565b6000620002a6620002a0846200022d565b6200020e565b905082815260208101848484011115620002c557620002c462000193565b5b620002d284828562000263565b509392505050565b600082601f830112620002f257620002f16200018e565b5b8151620003048482602086016200028f565b91505092915050565b6000819050919050565b62000322816200030d565b81146200032e57600080fd5b50565b600081519050620003428162000317565b92915050565b600381106200035657600080fd5b50565b6000815190506200036a8162000348565b92915050565b600381106200037e57600080fd5b50565b600081519050620003928162000370565b92915050565b60028110620003a657600080fd5b50565b600081519050620003ba8162000398565b92915050565b60008060008060008060c08789031215620003e057620003df62000184565b5b600087015167ffffffffffffffff81111562000401576200040062000189565b5b6200040f89828a01620002da565b96505060206200042289828a0162000331565b955050604087015167ffffffffffffffff81111562000446576200044562000189565b5b6200045489828a01620002da565b94505060606200046789828a0162000359565b93505060806200047a89828a0162000381565b92505060a06200048d89828a01620003a9565b9150509295509295509295565b600081519050919050565b7f4e487b7100000000000000000000000000000000000000000000000000000000600052602260045260246000fd5b60006002820490506001821680620004ed57607f821691505b602082108103620005035762000502620004a5565b5b50919050565b60008190508160005260206000209050919050565b60006020601f8301049050919050565b600082821b905092915050565b6000600883026200056d7fffffffffffffffffffffffffffffffffffffffffffffffffffffffffffffffff826200052e565b6200057986836200052e565b95508019841693508086168417925050509392505050565b6000819050919050565b6000620005bc620005b6620005b0846200030d565b62000591565b6200030d565b9050919050565b6000819050919050565b620005d8836200059b565b620005f0620005e782620005c3565b8484546200053b565b825550505050565b600090565b62000607620005f8565b62000614818484620005cd565b505050565b5b818110156200063c5762000630600082620005fd565b6001810190506200061a565b5050565b601f8211156200068b57620006558162000509565b62000660846200051e565b8101602085101562000670578190505b620006886200067f856200051e565b83018262000619565b50505b505050565b600082821c905092915050565b6000620006b06000198460080262000690565b1980831691505092915050565b6000620006cb83836200069d565b9150826002028217905092915050565b620006e6826200049a565b67ffffffffffffffff811115620007025762000701620001a9565b5b6200070e8254620004d4565b6200071b82828562000640565b600060209050601f8311600181146200075357600084156200073e578287015190505b6200074a8582620006bd565b865550620007ba565b601f198416620007638662000509565b60005b828110156200078d5784890151825560018201915060208501945060208101905062000766565b86831015620007ad5784890151620007a9601f8916826200069d565b8355505b6001600288020188555050505b505050505050565b7f4e487b7100000000000000000000000000000000000000000000000000000000600052602160045260246000fd5b6000819050919050565b620008106200080a826200030d565b620007f1565b82525050565b6000620008248284620007fb565b60208201915081905092915050565b6106f180620008436000396000f3fe608060405234801561001057600080fd5b50600436106100575760003560e01c80635b8551ea1461005c57806395bc953814610078578063a2b40d1914610094578063a6f9dae1146100b0578063f1535894146100cc575b600080fd5b61007660048036038101906100719190610321565b6100ef565b005b610092600480360381019061008d9190610373565b61011c565b005b6100ae60048036038101906100a991906103d6565b610149565b005b6100ca60048036038101906100c59190610461565b610153565b005b6100d4610197565b6040516100e6969594939291906105ec565b60405180910390f35b80600660016101000a81548160ff021916908360018111156101145761011361052d565b5b021790555050565b80600660006101000a81548160ff021916908360028111156101415761014061052d565b5b021790555050565b8060058190555050565b80600660026101000a81548173ffffffffffffffffffffffffffffffffffffffff021916908373ffffffffffffffffffffffffffffffffffffffff16021790555050565b6060600080606060008060016002546005546003600460009054906101000a900460ff16600660009054906101000a900460ff168580546101d79061068a565b80601f01602080910402602001604051908101604052809291908181526020018280546102039061068a565b80156102505780601f1061022557610100808354040283529160200191610250565b820191906000526020600020905b81548152906001019060200180831161023357829003601f168201915b505050505095508280546102639061068a565b80601f016020809104026020016040519081016040528092919081815260200182805461028f9061068a565b80156102dc5780601f106102b1576101008083540402835291602001916102dc565b820191906000526020600020905b8154815290600101906020018083116102bf57829003601f168201915b50505050509250955095509550955095509550909192939495565b600080fd5b6002811061030957600080fd5b50565b60008135905061031b816102fc565b92915050565b600060208284031215610337576103366102f7565b5b60006103458482850161030c565b91505092915050565b6003811061035b57600080fd5b50565b60008135905061036d8161034e565b92915050565b600060208284031215610389576103886102f7565b5b60006103978482850161035e565b91505092915050565b6000819050919050565b6103b3816103a0565b81146103be57600080fd5b50565b6000813590506103d0816103aa565b92915050565b6000602082840312156103ec576103eb6102f7565b5b60006103fa848285016103c1565b91505092915050565b600073ffffffffffffffffffffffffffffffffffffffff82169050919050565b600061042e82610403565b9050919050565b61043e81610423565b811461044957600080fd5b50565b60008135905061045b81610435565b92915050565b600060208284031215610477576104766102f7565b5b60006104858482850161044c565b91505092915050565b600081519050919050565b600082825260208201905092915050565b60005b838110156104c85780820151818401526020810190506104ad565b60008484015250505050565b6000601f19601f8301169050919050565b60006104f08261048e565b6104fa8185610499565b935061050a8185602086016104aa565b610513816104d4565b840191505092915050565b610527816103a0565b82525050565b7f4e487b7100000000000000000000000000000000000000000000000000000000600052602160045260246000fd5b6003811061056d5761056c61052d565b5b50565b600081905061057e8261055c565b919050565b600061058e82610570565b9050919050565b61059e81610583565b82525050565b600381106105b5576105b461052d565b5b50565b60008190506105c6826105a4565b919050565b60006105d6826105b8565b9050919050565b6105e6816105cb565b82525050565b600060c082019050818103600083015261060681896104e5565b9050610615602083018861051e565b610622604083018761051e565b818103606083015261063481866104e5565b90506106436080830185610595565b61065060a08301846105dd565b979650505050505050565b7f4e487b7100000000000000000000000000000000000000000000000000000000600052602260045260246000fd5b600060028204905060018216806106a257607f821691505b6020821081036106b5576106b461065b565b5b5091905056fea26469706673582212202621ed607b13e1a3cdd2233c33d33fb743555fbd888ee2d4d7de009428a8e55764736f6c63430008110033a2646970667358221220ce2f9c02b15693e696bca846cc42680289abcfacd7fabaa84c0e32694171361464736f6c63430008110033",
  "immutableReferences": {},
  "source": "// SPDX-License-Identifier: MIT\npragma solidity 0.8.17;\n\nimport \"./Ticket.sol\";\n\ncontract Manager {\n    event TicketCreated();\n\n    Ticket ticket;\n\n    constructor() {}\n\n    function createTicket() public {\n        string memory ticketName = \"ticket1\";\n        uint256 date = block.timestamp;\n        string memory eventDescription = \"description\";\n        EventType eventType;\n        TicketStatus status;\n        TransferStatus transferStatus;\n\n        ticket = new Ticket(\n            ticketName,\n            date,\n            eventDescription,\n            eventType,\n            status,\n            transferStatus\n        );\n        emit TicketCreated();\n    }\n\n    function showAllTickets() public {}\n\n    function showTicketsByAddress() public {}\n\n    function transferTicket() public {}\n\n    function changeTicketPrice() public {}\n\n    function showStatistics() public {}\n}\n",
  "sourcePath": "C:\\Users\\chmer\\Downloads\\INCLUIT\\ejercicio_integrador\\contracts\\Manager.sol",
  "compiler": {
    "name": "solc",
    "version": "0.8.17+commit.8df45f5f.Emscripten.clang"
  },
  "schemaVersion": "3.4.10",
  "updatedAt": "2022-11-11T01:50:24.427Z",
  "devdoc": {
    "kind": "dev",
    "methods": {},
    "version": 1
  },
  "userdoc": {
    "kind": "user",
    "methods": {},
    "version": 1
  }
}