{
  "contractName": "Manager",
  "abi": [
    {
      "inputs": [],
      "stateMutability": "nonpayable",
      "type": "constructor"
    },
    {
      "anonymous": false,
      "inputs": [
        {
          "indexed": false,
          "internalType": "address",
          "name": "ticketOwner",
          "type": "address"
        }
      ],
      "name": "TicketCreated",
      "type": "event"
    },
    {
      "stateMutability": "payable",
      "type": "receive"
    },
    {
      "inputs": [],
      "name": "createTicket",
      "outputs": [],
      "stateMutability": "nonpayable",
      "type": "function"
    },
    {
      "inputs": [],
      "name": "showAllTickets",
      "outputs": [
        {
          "internalType": "contract Ticket[]",
          "name": "",
          "type": "address[]"
        }
      ],
      "stateMutability": "view",
      "type": "function"
    },
    {
      "inputs": [
        {
          "internalType": "address",
          "name": "addr",
          "type": "address"
        }
      ],
      "name": "showTicketsByAddress",
      "outputs": [
        {
          "internalType": "contract Ticket[]",
          "name": "",
          "type": "address[]"
        }
      ],
      "stateMutability": "view",
      "type": "function"
    },
    {
      "inputs": [
        {
          "internalType": "contract Ticket",
          "name": "_ticket",
          "type": "address"
        },
        {
          "internalType": "address",
          "name": "_newOwner",
          "type": "address"
        }
      ],
      "name": "transferTicket",
      "outputs": [],
      "stateMutability": "nonpayable",
      "type": "function"
    },
    {
      "inputs": [
        {
          "internalType": "contract Ticket",
          "name": "_ticket",
          "type": "address"
        }
      ],
      "name": "changeTicketPrice",
      "outputs": [],
      "stateMutability": "payable",
      "type": "function"
    },
    {
      "inputs": [
        {
          "internalType": "contract Ticket",
          "name": "_ticket",
          "type": "address"
        }
      ],
      "name": "showTicketInformation",
      "outputs": [
        {
          "internalType": "uint256",
          "name": "",
          "type": "uint256"
        },
        {
          "internalType": "string",
          "name": "",
          "type": "string"
        },
        {
          "internalType": "uint256",
          "name": "",
          "type": "uint256"
        },
        {
          "internalType": "uint256",
          "name": "",
          "type": "uint256"
        },
        {
          "internalType": "string",
          "name": "",
          "type": "string"
        },
        {
          "internalType": "enum EventType",
          "name": "",
          "type": "uint8"
        },
        {
          "internalType": "enum TicketStatus",
          "name": "",
          "type": "uint8"
        },
        {
          "internalType": "address",
          "name": "",
          "type": "address"
        }
      ],
      "stateMutability": "view",
      "type": "function"
    },
    {
      "inputs": [],
      "name": "showStatistics",
      "outputs": [
        {
          "internalType": "uint256",
          "name": "",
          "type": "uint256"
        },
        {
          "internalType": "uint256",
          "name": "",
          "type": "uint256"
        }
      ],
      "stateMutability": "view",
      "type": "function"
    },
    {
      "inputs": [
        {
          "internalType": "contract Ticket",
          "name": "ticket",
          "type": "address"
        }
      ],
      "name": "ownerOf",
      "outputs": [
        {
          "internalType": "address",
          "name": "",
          "type": "address"
        }
      ],
      "stateMutability": "view",
      "type": "function"
    }
  ],
  "bytecode": "0x608060405234801561001057600080fd5b50600560028190555060405161002590610086565b604051809103906000f080158015610041573d6000803e3d6000fd5b506000806101000a81548173ffffffffffffffffffffffffffffffffffffffff021916908373ffffffffffffffffffffffffffffffffffffffff160217905550610094565b612b228062002f5983390190565b612eb580620000a46000396000f3fe6080604052600436106200008b5760003560e01c80634ac6d23911620000555780634ac6d239146200016f57806390680243146200018f578063b316164714620001c0578063d0c451c014620001f05762000093565b80630f7d7734146200009857806314afd79e14620000e35780631d2717091462000127578063411f93d114620001415762000093565b366200009357005b600080fd5b348015620000a557600080fd5b50620000c46004803603810190620000be919062000f83565b62000234565b604051620000da98979695949392919062001160565b60405180910390f35b348015620000f057600080fd5b506200010f600480360381019062000109919062000f83565b620002d4565b6040516200011e9190620011fc565b60405180910390f35b3480156200013457600080fd5b506200013f620003ee565b005b3480156200014e57600080fd5b506200016d60048036038101906200016791906200124a565b62000628565b005b6200018d600480360381019062000187919062000f83565b620008f1565b005b3480156200019c57600080fd5b50620001a762000a1b565b604051620001b792919062001291565b60405180910390f35b348015620001cd57600080fd5b50620001d862000b1d565b604051620001e79190620013e6565b60405180910390f35b348015620001fd57600080fd5b506200021c60048036038101906200021691906200140a565b62000bad565b6040516200022b9190620013e6565b60405180910390f35b60006060600080606060008060008873ffffffffffffffffffffffffffffffffffffffff1663f15358946040518163ffffffff1660e01b8152600401600060405180830381865afa1580156200028e573d6000803e3d6000fd5b505050506040513d6000823e3d601f19601f82011682018060405250810190620002b9919062001616565b97509750975097509750975097509750919395975091939597565b60008060009054906101000a900473ffffffffffffffffffffffffffffffffffffffff1673ffffffffffffffffffffffffffffffffffffffff16636352211e8373ffffffffffffffffffffffffffffffffffffffff16635d1ca6316040518163ffffffff1660e01b8152600401602060405180830381865afa1580156200035f573d6000803e3d6000fd5b505050506040513d601f19601f820116820180604052508101906200038591906200171d565b6040518263ffffffff1660e01b8152600401620003a391906200174f565b602060405180830381865afa158015620003c1573d6000803e3d6000fd5b505050506040513d601f19601f82011682018060405250810190620003e791906200176c565b9050919050565b60006040518060400160405280600781526020017f7469636b657431000000000000000000000000000000000000000000000000008152509050600042905060006040518060400160405280600b81526020017f6465736372697074696f6e0000000000000000000000000000000000000000008152509050600080600080339050600087878787878787604051620004879062000ee8565b620004999796959493929190620017ef565b604051809103906000f080158015620004b6573d6000803e3d6000fd5b50905060008054906101000a900473ffffffffffffffffffffffffffffffffffffffff1673ffffffffffffffffffffffffffffffffffffffff166340c10f19838373ffffffffffffffffffffffffffffffffffffffff16635d1ca6316040518163ffffffff1660e01b8152600401602060405180830381865afa15801562000542573d6000803e3d6000fd5b505050506040513d601f19601f820116820180604052508101906200056891906200171d565b6040518363ffffffff1660e01b8152600401620005879291906200187a565b600060405180830381600087803b158015620005a257600080fd5b505af1158015620005b7573d6000803e3d6000fd5b505050506001819080600181540180825580915050600190039060005260206000200160009091909190916101000a81548173ffffffffffffffffffffffffffffffffffffffff021916908373ffffffffffffffffffffffffffffffffffffffff1602179055505050505050505050565b600060018111156200063f576200063e6200106a565b5b8273ffffffffffffffffffffffffffffffffffffffff16631a6fb3426040518163ffffffff1660e01b8152600401602060405180830381865afa1580156200068b573d6000803e3d6000fd5b505050506040513d601f19601f82011682018060405250810190620006b19190620018cf565b6001811115620006c657620006c56200106a565b5b1462000709576040517f08c379a0000000000000000000000000000000000000000000000000000000008152600401620007009062001977565b60405180910390fd5b60008054906101000a900473ffffffffffffffffffffffffffffffffffffffff1673ffffffffffffffffffffffffffffffffffffffff166323b872dd8373ffffffffffffffffffffffffffffffffffffffff1663893d20e86040518163ffffffff1660e01b8152600401602060405180830381865afa15801562000791573d6000803e3d6000fd5b505050506040513d601f19601f82011682018060405250810190620007b791906200176c565b838573ffffffffffffffffffffffffffffffffffffffff16635d1ca6316040518163ffffffff1660e01b8152600401602060405180830381865afa15801562000804573d6000803e3d6000fd5b505050506040513d601f19601f820116820180604052508101906200082a91906200171d565b6040518463ffffffff1660e01b81526004016200084a9392919062001999565b600060405180830381600087803b1580156200086557600080fd5b505af11580156200087a573d6000803e3d6000fd5b505050508173ffffffffffffffffffffffffffffffffffffffff1663a6f9dae1826040518263ffffffff1660e01b8152600401620008b99190620011fc565b600060405180830381600087803b158015620008d457600080fd5b505af1158015620008e9573d6000803e3d6000fd5b505050505050565b6000349050600082905060006064600254846200090f919062001a05565b6200091b919062001a7f565b905060008273ffffffffffffffffffffffffffffffffffffffff16828562000944919062001ab7565b604051620009529062001b27565b60006040518083038185875af1925050503d806000811462000991576040519150601f19603f3d011682016040523d82523d6000602084013e62000996565b606091505b5050905080620009a557600080fd5b8473ffffffffffffffffffffffffffffffffffffffff1663a2b40d19856040518263ffffffff1660e01b8152600401620009e091906200174f565b600060405180830381600087803b158015620009fb57600080fd5b505af115801562000a10573d6000803e3d6000fd5b505050505050505050565b600080600080600090505b60018054905081101562000b0c576001818154811062000a4b5762000a4a62001b3e565b5b9060005260206000200160009054906101000a900473ffffffffffffffffffffffffffffffffffffffff1673ffffffffffffffffffffffffffffffffffffffff166398d5fdca6040518163ffffffff1660e01b8152600401602060405180830381865afa15801562000ac1573d6000803e3d6000fd5b505050506040513d601f19601f8201168201806040525081019062000ae791906200171d565b8262000af4919062001b6d565b9150808062000b039062001ba8565b91505062000a26565b506001805490508192509250509091565b6060600180548060200260200160405190810160405280929190818152602001828054801562000ba357602002820191906000526020600020905b8160009054906101000a900473ffffffffffffffffffffffffffffffffffffffff1673ffffffffffffffffffffffffffffffffffffffff168152602001906001019080831162000b58575b5050505050905090565b6060600080600090505b60018054905081101562000cd2578373ffffffffffffffffffffffffffffffffffffffff166001828154811062000bf35762000bf262001b3e565b5b9060005260206000200160009054906101000a900473ffffffffffffffffffffffffffffffffffffffff1673ffffffffffffffffffffffffffffffffffffffff1663893d20e86040518163ffffffff1660e01b8152600401602060405180830381865afa15801562000c69573d6000803e3d6000fd5b505050506040513d601f19601f8201168201806040525081019062000c8f91906200176c565b73ffffffffffffffffffffffffffffffffffffffff160362000cbc57818062000cb89062001ba8565b9250505b808062000cc99062001ba8565b91505062000bb7565b5060008167ffffffffffffffff81111562000cf25762000cf162001477565b5b60405190808252806020026020018201604052801562000d215781602001602082028036833780820191505090505b5090506000805b60018054905081101562000edc578573ffffffffffffffffffffffffffffffffffffffff166001828154811062000d645762000d6362001b3e565b5b9060005260206000200160009054906101000a900473ffffffffffffffffffffffffffffffffffffffff1673ffffffffffffffffffffffffffffffffffffffff1663893d20e86040518163ffffffff1660e01b8152600401602060405180830381865afa15801562000dda573d6000803e3d6000fd5b505050506040513d601f19601f8201168201806040525081019062000e0091906200176c565b73ffffffffffffffffffffffffffffffffffffffff160362000ec6576001818154811062000e335762000e3262001b3e565b5b9060005260206000200160009054906101000a900473ffffffffffffffffffffffffffffffffffffffff1683838062000e6c9062001ba8565b94508151811062000e825762000e8162001b3e565b5b602002602001019073ffffffffffffffffffffffffffffffffffffffff16908173ffffffffffffffffffffffffffffffffffffffff16815250508382031562000edc575b808062000ed39062001ba8565b91505062000d28565b50819350505050919050565b61128a8062001bf683390190565b6000604051905090565b600080fd5b600080fd5b600073ffffffffffffffffffffffffffffffffffffffff82169050919050565b600062000f378262000f0a565b9050919050565b600062000f4b8262000f2a565b9050919050565b62000f5d8162000f3e565b811462000f6957600080fd5b50565b60008135905062000f7d8162000f52565b92915050565b60006020828403121562000f9c5762000f9b62000f00565b5b600062000fac8482850162000f6c565b91505092915050565b6000819050919050565b62000fca8162000fb5565b82525050565b600081519050919050565b600082825260208201905092915050565b60005b838110156200100c57808201518184015260208101905062000fef565b60008484015250505050565b6000601f19601f8301169050919050565b6000620010368262000fd0565b62001042818562000fdb565b93506200105481856020860162000fec565b6200105f8162001018565b840191505092915050565b7f4e487b7100000000000000000000000000000000000000000000000000000000600052602160045260246000fd5b60038110620010ad57620010ac6200106a565b5b50565b6000819050620010c08262001099565b919050565b6000620010d282620010b0565b9050919050565b620010e481620010c5565b82525050565b60038110620010fe57620010fd6200106a565b5b50565b60008190506200111182620010ea565b919050565b6000620011238262001101565b9050919050565b620011358162001116565b82525050565b6000620011488262000f0a565b9050919050565b6200115a816200113b565b82525050565b60006101008201905062001178600083018b62000fbf565b81810360208301526200118c818a62001029565b90506200119d604083018962000fbf565b620011ac606083018862000fbf565b8181036080830152620011c0818762001029565b9050620011d160a0830186620010d9565b620011e060c08301856200112a565b620011ef60e08301846200114f565b9998505050505050505050565b60006020820190506200121360008301846200114f565b92915050565b62001224816200113b565b81146200123057600080fd5b50565b600081359050620012448162001219565b92915050565b6000806040838503121562001264576200126362000f00565b5b6000620012748582860162000f6c565b9250506020620012878582860162001233565b9150509250929050565b6000604082019050620012a8600083018562000fbf565b620012b7602083018462000fbf565b9392505050565b600081519050919050565b600082825260208201905092915050565b6000819050602082019050919050565b6000819050919050565b6000620013156200130f620013098462000f0a565b620012ea565b62000f0a565b9050919050565b60006200132982620012f4565b9050919050565b60006200133d826200131c565b9050919050565b6200134f8162001330565b82525050565b600062001363838362001344565b60208301905092915050565b6000602082019050919050565b60006200138982620012be565b620013958185620012c9565b9350620013a283620012da565b8060005b83811015620013d9578151620013bd888262001355565b9750620013ca836200136f565b925050600181019050620013a6565b5085935050505092915050565b600060208201905081810360008301526200140281846200137c565b905092915050565b60006020828403121562001423576200142262000f00565b5b6000620014338482850162001233565b91505092915050565b620014478162000fb5565b81146200145357600080fd5b50565b60008151905062001467816200143c565b92915050565b600080fd5b600080fd5b7f4e487b7100000000000000000000000000000000000000000000000000000000600052604160045260246000fd5b620014b18262001018565b810181811067ffffffffffffffff82111715620014d357620014d262001477565b5b80604052505050565b6000620014e862000ef6565b9050620014f68282620014a6565b919050565b600067ffffffffffffffff82111562001519576200151862001477565b5b620015248262001018565b9050602081019050919050565b6000620015486200154284620014fb565b620014dc565b90508281526020810184848401111562001567576200156662001472565b5b6200157484828562000fec565b509392505050565b600082601f8301126200159457620015936200146d565b5b8151620015a684826020860162001531565b91505092915050565b60038110620015bd57600080fd5b50565b600081519050620015d181620015af565b92915050565b60038110620015e557600080fd5b50565b600081519050620015f981620015d7565b92915050565b600081519050620016108162001219565b92915050565b600080600080600080600080610100898b0312156200163a576200163962000f00565b5b60006200164a8b828c0162001456565b985050602089015167ffffffffffffffff8111156200166e576200166d62000f05565b5b6200167c8b828c016200157c565b97505060406200168f8b828c0162001456565b9650506060620016a28b828c0162001456565b955050608089015167ffffffffffffffff811115620016c657620016c562000f05565b5b620016d48b828c016200157c565b94505060a0620016e78b828c01620015c0565b93505060c0620016fa8b828c01620015e8565b92505060e06200170d8b828c01620015ff565b9150509295985092959890939650565b60006020828403121562001736576200173562000f00565b5b6000620017468482850162001456565b91505092915050565b600060208201905062001766600083018462000fbf565b92915050565b60006020828403121562001785576200178462000f00565b5b60006200179584828501620015ff565b91505092915050565b60028110620017b257620017b16200106a565b5b50565b6000819050620017c5826200179e565b919050565b6000620017d782620017b5565b9050919050565b620017e981620017ca565b82525050565b600060e08201905081810360008301526200180b818a62001029565b90506200181c602083018962000fbf565b818103604083015262001830818862001029565b9050620018416060830187620010d9565b6200185060808301866200112a565b6200185f60a0830185620017de565b6200186e60c08301846200114f565b98975050505050505050565b60006040820190506200189160008301856200114f565b620018a0602083018462000fbf565b9392505050565b60028110620018b557600080fd5b50565b600081519050620018c981620018a7565b92915050565b600060208284031215620018e857620018e762000f00565b5b6000620018f884828501620018b8565b91505092915050565b7f4d616e616765723a20456c207469636b6574206e6f206573207472616e73666560008201527f7269626c65000000000000000000000000000000000000000000000000000000602082015250565b60006200195f60258362000fdb565b91506200196c8262001901565b604082019050919050565b60006020820190508181036000830152620019928162001950565b9050919050565b6000606082019050620019b060008301866200114f565b620019bf60208301856200114f565b620019ce604083018462000fbf565b949350505050565b7f4e487b7100000000000000000000000000000000000000000000000000000000600052601160045260246000fd5b600062001a128262000fb5565b915062001a1f8362000fb5565b925082820262001a2f8162000fb5565b9150828204841483151762001a495762001a48620019d6565b5b5092915050565b7f4e487b7100000000000000000000000000000000000000000000000000000000600052601260045260246000fd5b600062001a8c8262000fb5565b915062001a998362000fb5565b92508262001aac5762001aab62001a50565b5b828204905092915050565b600062001ac48262000fb5565b915062001ad18362000fb5565b925082820390508181111562001aec5762001aeb620019d6565b5b92915050565b600081905092915050565b50565b600062001b0f60008362001af2565b915062001b1c8262001afd565b600082019050919050565b600062001b348262001b00565b9150819050919050565b7f4e487b7100000000000000000000000000000000000000000000000000000000600052603260045260246000fd5b600062001b7a8262000fb5565b915062001b878362000fb5565b925082820190508082111562001ba25762001ba1620019d6565b5b92915050565b600062001bb58262000fb5565b91507fffffffffffffffffffffffffffffffffffffffffffffffffffffffffffffffff820362001bea5762001be9620019d6565b5b60018201905091905056fe60806040523480156200001157600080fd5b506040516200128a3803806200128a833981810160405281019062000037919062000426565b866001908162000048919062000758565b5085600281905550846003908162000061919062000758565b5083600460006101000a81548160ff021916908360028111156200008a57620000896200083f565b5b021790555082600660006101000a81548160ff02191690836002811115620000b757620000b66200083f565b5b021790555081600660016101000a81548160ff02191690836001811115620000e457620000e36200083f565b5b021790555080600660026101000a81548173ffffffffffffffffffffffffffffffffffffffff021916908373ffffffffffffffffffffffffffffffffffffffff1602179055506200013a6200014760201b60201c565b50505050505050620008b0565b426040516020016200015a919062000893565b6040516020818303038152906040528051906020012060001c600081905550565b6000604051905090565b600080fd5b600080fd5b600080fd5b600080fd5b6000601f19601f8301169050919050565b7f4e487b7100000000000000000000000000000000000000000000000000000000600052604160045260246000fd5b620001e48262000199565b810181811067ffffffffffffffff82111715620002065762000205620001aa565b5b80604052505050565b60006200021b6200017b565b9050620002298282620001d9565b919050565b600067ffffffffffffffff8211156200024c576200024b620001aa565b5b620002578262000199565b9050602081019050919050565b60005b838110156200028457808201518184015260208101905062000267565b60008484015250505050565b6000620002a7620002a1846200022e565b6200020f565b905082815260208101848484011115620002c657620002c562000194565b5b620002d384828562000264565b509392505050565b600082601f830112620002f357620002f26200018f565b5b81516200030584826020860162000290565b91505092915050565b6000819050919050565b62000323816200030e565b81146200032f57600080fd5b50565b600081519050620003438162000318565b92915050565b600381106200035757600080fd5b50565b6000815190506200036b8162000349565b92915050565b600381106200037f57600080fd5b50565b600081519050620003938162000371565b92915050565b60028110620003a757600080fd5b50565b600081519050620003bb8162000399565b92915050565b600073ffffffffffffffffffffffffffffffffffffffff82169050919050565b6000620003ee82620003c1565b9050919050565b6200040081620003e1565b81146200040c57600080fd5b50565b6000815190506200042081620003f5565b92915050565b600080600080600080600060e0888a03121562000448576200044762000185565b5b600088015167ffffffffffffffff8111156200046957620004686200018a565b5b620004778a828b01620002db565b97505060206200048a8a828b0162000332565b965050604088015167ffffffffffffffff811115620004ae57620004ad6200018a565b5b620004bc8a828b01620002db565b9550506060620004cf8a828b016200035a565b9450506080620004e28a828b0162000382565b93505060a0620004f58a828b01620003aa565b92505060c0620005088a828b016200040f565b91505092959891949750929550565b600081519050919050565b7f4e487b7100000000000000000000000000000000000000000000000000000000600052602260045260246000fd5b600060028204905060018216806200056a57607f821691505b60208210810362000580576200057f62000522565b5b50919050565b60008190508160005260206000209050919050565b60006020601f8301049050919050565b600082821b905092915050565b600060088302620005ea7fffffffffffffffffffffffffffffffffffffffffffffffffffffffffffffffff82620005ab565b620005f68683620005ab565b95508019841693508086168417925050509392505050565b6000819050919050565b600062000639620006336200062d846200030e565b6200060e565b6200030e565b9050919050565b6000819050919050565b620006558362000618565b6200066d620006648262000640565b848454620005b8565b825550505050565b600090565b6200068462000675565b620006918184846200064a565b505050565b5b81811015620006b957620006ad6000826200067a565b60018101905062000697565b5050565b601f8211156200070857620006d28162000586565b620006dd846200059b565b81016020851015620006ed578190505b62000705620006fc856200059b565b83018262000696565b50505b505050565b600082821c905092915050565b60006200072d600019846008026200070d565b1980831691505092915050565b60006200074883836200071a565b9150826002028217905092915050565b620007638262000517565b67ffffffffffffffff8111156200077f576200077e620001aa565b5b6200078b825462000551565b62000798828285620006bd565b600060209050601f831160018114620007d05760008415620007bb578287015190505b620007c785826200073a565b86555062000837565b601f198416620007e08662000586565b60005b828110156200080a57848901518255600182019150602085019450602081019050620007e3565b868310156200082a578489015162000826601f8916826200071a565b8355505b6001600288020188555050505b505050505050565b7f4e487b7100000000000000000000000000000000000000000000000000000000600052602160045260246000fd5b6000819050919050565b6200088d62000887826200030e565b6200086e565b82525050565b6000620008a1828462000878565b60208201915081905092915050565b6109ca80620008c06000396000f3fe6080604052600436106100955760003560e01c806395bc95381161005957806395bc95381461017657806398d5fdca1461019f578063a2b40d19146101ca578063a6f9dae1146101f3578063f15358941461021c5761009c565b80631a6fb342146100a15780634e69d560146100cc5780635b8551ea146100f75780635d1ca63114610120578063893d20e81461014b5761009c565b3661009c57005b600080fd5b3480156100ad57600080fd5b506100b661024e565b6040516100c39190610567565b60405180910390f35b3480156100d857600080fd5b506100e1610265565b6040516100ee91906105ca565b60405180910390f35b34801561010357600080fd5b5061011e6004803603810190610119919061060f565b61027c565b005b34801561012c57600080fd5b506101356102a9565b6040516101429190610655565b60405180910390f35b34801561015757600080fd5b506101606102b2565b60405161016d91906106b1565b60405180910390f35b34801561018257600080fd5b5061019d600480360381019061019891906106f1565b6102dc565b005b3480156101ab57600080fd5b506101b4610309565b6040516101c19190610655565b60405180910390f35b3480156101d657600080fd5b506101f160048036038101906101ec919061074a565b610313565b005b3480156101ff57600080fd5b5061021a600480360381019061021591906107a3565b61031d565b005b34801561022857600080fd5b50610231610361565b6040516102459897969594939291906108a8565b60405180910390f35b6000600660019054906101000a900460ff16905090565b6000600660009054906101000a900460ff16905090565b80600660016101000a81548160ff021916908360018111156102a1576102a06104f0565b5b021790555050565b60008054905090565b6000600660029054906101000a900473ffffffffffffffffffffffffffffffffffffffff16905090565b80600660006101000a81548160ff02191690836002811115610301576103006104f0565b5b021790555050565b6000600554905090565b8060058190555050565b80600660026101000a81548173ffffffffffffffffffffffffffffffffffffffff021916908373ffffffffffffffffffffffffffffffffffffffff16021790555050565b6000606060008060606000806000805460016002546005546003600460009054906101000a900460ff16600660009054906101000a900460ff16600660029054906101000a900473ffffffffffffffffffffffffffffffffffffffff168680546103ca90610963565b80601f01602080910402602001604051908101604052809291908181526020018280546103f690610963565b80156104435780601f1061041857610100808354040283529160200191610443565b820191906000526020600020905b81548152906001019060200180831161042657829003601f168201915b5050505050965083805461045690610963565b80601f016020809104026020016040519081016040528092919081815260200182805461048290610963565b80156104cf5780601f106104a4576101008083540402835291602001916104cf565b820191906000526020600020905b8154815290600101906020018083116104b257829003601f168201915b50505050509350975097509750975097509750975097509091929394959697565b7f4e487b7100000000000000000000000000000000000000000000000000000000600052602160045260246000fd5b600281106105305761052f6104f0565b5b50565b60008190506105418261051f565b919050565b600061055182610533565b9050919050565b61056181610546565b82525050565b600060208201905061057c6000830184610558565b92915050565b60038110610593576105926104f0565b5b50565b60008190506105a482610582565b919050565b60006105b482610596565b9050919050565b6105c4816105a9565b82525050565b60006020820190506105df60008301846105bb565b92915050565b600080fd5b600281106105f757600080fd5b50565b600081359050610609816105ea565b92915050565b600060208284031215610625576106246105e5565b5b6000610633848285016105fa565b91505092915050565b6000819050919050565b61064f8161063c565b82525050565b600060208201905061066a6000830184610646565b92915050565b600073ffffffffffffffffffffffffffffffffffffffff82169050919050565b600061069b82610670565b9050919050565b6106ab81610690565b82525050565b60006020820190506106c660008301846106a2565b92915050565b600381106106d957600080fd5b50565b6000813590506106eb816106cc565b92915050565b600060208284031215610707576107066105e5565b5b6000610715848285016106dc565b91505092915050565b6107278161063c565b811461073257600080fd5b50565b6000813590506107448161071e565b92915050565b6000602082840312156107605761075f6105e5565b5b600061076e84828501610735565b91505092915050565b61078081610690565b811461078b57600080fd5b50565b60008135905061079d81610777565b92915050565b6000602082840312156107b9576107b86105e5565b5b60006107c78482850161078e565b91505092915050565b600081519050919050565b600082825260208201905092915050565b60005b8381101561080a5780820151818401526020810190506107ef565b60008484015250505050565b6000601f19601f8301169050919050565b6000610832826107d0565b61083c81856107db565b935061084c8185602086016107ec565b61085581610816565b840191505092915050565b60038110610871576108706104f0565b5b50565b600081905061088282610860565b919050565b600061089282610874565b9050919050565b6108a281610887565b82525050565b6000610100820190506108be600083018b610646565b81810360208301526108d0818a610827565b90506108df6040830189610646565b6108ec6060830188610646565b81810360808301526108fe8187610827565b905061090d60a0830186610899565b61091a60c08301856105bb565b61092760e08301846106a2565b9998505050505050505050565b7f4e487b7100000000000000000000000000000000000000000000000000000000600052602260045260246000fd5b6000600282049050600182168061097b57607f821691505b60208210810361098e5761098d610934565b5b5091905056fea2646970667358221220aa896fc4dc7015bf56aa0c21752a1ccc65a1feeb68d6cb68e43f362f5ab9951564736f6c63430008110033a264697066735822122037bd259e51ed1db049908cb7823a284f879a09bc5d69e05f0af9e4495b341fbb64736f6c6343000811003360806040523480156200001157600080fd5b506040518060400160405280600d81526020017f4d79455243373231546f6b656e000000000000000000000000000000000000008152506040518060400160405280600381526020017f4d544b000000000000000000000000000000000000000000000000000000000081525081600090816200008f919062000324565b508060019081620000a1919062000324565b5050506200040b565b600081519050919050565b7f4e487b7100000000000000000000000000000000000000000000000000000000600052604160045260246000fd5b7f4e487b7100000000000000000000000000000000000000000000000000000000600052602260045260246000fd5b600060028204905060018216806200012c57607f821691505b602082108103620001425762000141620000e4565b5b50919050565b60008190508160005260206000209050919050565b60006020601f8301049050919050565b600082821b905092915050565b600060088302620001ac7fffffffffffffffffffffffffffffffffffffffffffffffffffffffffffffffff826200016d565b620001b886836200016d565b95508019841693508086168417925050509392505050565b6000819050919050565b6000819050919050565b600062000205620001ff620001f984620001d0565b620001da565b620001d0565b9050919050565b6000819050919050565b6200022183620001e4565b6200023962000230826200020c565b8484546200017a565b825550505050565b600090565b6200025062000241565b6200025d81848462000216565b505050565b5b8181101562000285576200027960008262000246565b60018101905062000263565b5050565b601f821115620002d4576200029e8162000148565b620002a9846200015d565b81016020851015620002b9578190505b620002d1620002c8856200015d565b83018262000262565b50505b505050565b600082821c905092915050565b6000620002f960001984600802620002d9565b1980831691505092915050565b6000620003148383620002e6565b9150826002028217905092915050565b6200032f82620000aa565b67ffffffffffffffff8111156200034b576200034a620000b5565b5b62000357825462000113565b6200036482828562000289565b600060209050601f8311600181146200039c576000841562000387578287015190505b62000393858262000306565b86555062000403565b601f198416620003ac8662000148565b60005b82811015620003d657848901518255600182019150602085019450602081019050620003af565b86831015620003f65784890151620003f2601f891682620002e6565b8355505b6001600288020188555050505b505050505050565b612707806200041b6000396000f3fe608060405234801561001057600080fd5b50600436106100ea5760003560e01c80636352211e1161008c578063a22cb46511610066578063a22cb4651461025b578063b88d4fde14610277578063c87b56dd14610293578063e985e9c5146102c3576100ea565b80636352211e146101dd57806370a082311461020d57806395d89b411461023d576100ea565b8063095ea7b3116100c8578063095ea7b31461016d57806323b872dd1461018957806340c10f19146101a557806342842e0e146101c1576100ea565b806301ffc9a7146100ef57806306fdde031461011f578063081812fc1461013d575b600080fd5b610109600480360381019061010491906118da565b6102f3565b6040516101169190611922565b60405180910390f35b6101276103d5565b60405161013491906119cd565b60405180910390f35b61015760048036038101906101529190611a25565b610467565b6040516101649190611a93565b60405180910390f35b61018760048036038101906101829190611ada565b6104ad565b005b6101a3600480360381019061019e9190611b1a565b6105c4565b005b6101bf60048036038101906101ba9190611ada565b61061d565b005b6101db60048036038101906101d69190611b1a565b61063b565b005b6101f760048036038101906101f29190611a25565b61065b565b6040516102049190611a93565b60405180910390f35b61022760048036038101906102229190611b6d565b6106e1565b6040516102349190611ba9565b60405180910390f35b610245610798565b60405161025291906119cd565b60405180910390f35b61027560048036038101906102709190611bf0565b61082a565b005b610291600480360381019061028c9190611d65565b610840565b005b6102ad60048036038101906102a89190611a25565b6108a2565b6040516102ba91906119cd565b60405180910390f35b6102dd60048036038101906102d89190611de8565b61090a565b6040516102ea9190611922565b60405180910390f35b60007f80ac58cd000000000000000000000000000000000000000000000000000000007bffffffffffffffffffffffffffffffffffffffffffffffffffffffff1916827bffffffffffffffffffffffffffffffffffffffffffffffffffffffff191614806103be57507f5b5e139f000000000000000000000000000000000000000000000000000000007bffffffffffffffffffffffffffffffffffffffffffffffffffffffff1916827bffffffffffffffffffffffffffffffffffffffffffffffffffffffff1916145b806103ce57506103cd8261099e565b5b9050919050565b6060600080546103e490611e57565b80601f016020809104026020016040519081016040528092919081815260200182805461041090611e57565b801561045d5780601f106104325761010080835404028352916020019161045d565b820191906000526020600020905b81548152906001019060200180831161044057829003601f168201915b5050505050905090565b600061047282610a08565b6004600083815260200190815260200160002060009054906101000a900473ffffffffffffffffffffffffffffffffffffffff169050919050565b60006104b88261065b565b90508073ffffffffffffffffffffffffffffffffffffffff168373ffffffffffffffffffffffffffffffffffffffff1603610528576040517f08c379a000000000000000000000000000000000000000000000000000000000815260040161051f90611efa565b60405180910390fd5b8073ffffffffffffffffffffffffffffffffffffffff16610547610a53565b73ffffffffffffffffffffffffffffffffffffffff161480610576575061057581610570610a53565b61090a565b5b6105b5576040517f08c379a00000000000000000000000000000000000000000000000000000000081526004016105ac90611f8c565b60405180910390fd5b6105bf8383610a5b565b505050565b6105ce8382610b14565b61060d576040517f08c379a00000000000000000000000000000000000000000000000000000000081526004016106049061201e565b60405180910390fd5b610618838383610ba9565b505050565b610637828260405180602001604052806000815250610ea2565b5050565b61065683838360405180602001604052806000815250610840565b505050565b60008061066783610efd565b9050600073ffffffffffffffffffffffffffffffffffffffff168173ffffffffffffffffffffffffffffffffffffffff16036106d8576040517f08c379a00000000000000000000000000000000000000000000000000000000081526004016106cf9061208a565b60405180910390fd5b80915050919050565b60008073ffffffffffffffffffffffffffffffffffffffff168273ffffffffffffffffffffffffffffffffffffffff1603610751576040517f08c379a00000000000000000000000000000000000000000000000000000000081526004016107489061211c565b60405180910390fd5b600360008373ffffffffffffffffffffffffffffffffffffffff1673ffffffffffffffffffffffffffffffffffffffff168152602001908152602001600020549050919050565b6060600180546107a790611e57565b80601f01602080910402602001604051908101604052809291908181526020018280546107d390611e57565b80156108205780601f106107f557610100808354040283529160200191610820565b820191906000526020600020905b81548152906001019060200180831161080357829003601f168201915b5050505050905090565b61083c610835610a53565b8383610f3a565b5050565b61085161084b610a53565b83610b14565b610890576040517f08c379a0000000000000000000000000000000000000000000000000000000008152600401610887906121ae565b60405180910390fd5b61089c848484846110a6565b50505050565b60606108ad82610a08565b60006108b7611102565b905060008151116108d75760405180602001604052806000815250610902565b806108e184611119565b6040516020016108f292919061220a565b6040516020818303038152906040525b915050919050565b6000600560008473ffffffffffffffffffffffffffffffffffffffff1673ffffffffffffffffffffffffffffffffffffffff16815260200190815260200160002060008373ffffffffffffffffffffffffffffffffffffffff1673ffffffffffffffffffffffffffffffffffffffff16815260200190815260200160002060009054906101000a900460ff16905092915050565b60007f01ffc9a7000000000000000000000000000000000000000000000000000000007bffffffffffffffffffffffffffffffffffffffffffffffffffffffff1916827bffffffffffffffffffffffffffffffffffffffffffffffffffffffff1916149050919050565b610a11816111e7565b610a50576040517f08c379a0000000000000000000000000000000000000000000000000000000008152600401610a479061208a565b60405180910390fd5b50565b600033905090565b816004600083815260200190815260200160002060006101000a81548173ffffffffffffffffffffffffffffffffffffffff021916908373ffffffffffffffffffffffffffffffffffffffff160217905550808273ffffffffffffffffffffffffffffffffffffffff16610ace8361065b565b73ffffffffffffffffffffffffffffffffffffffff167f8c5be1e5ebec7d5bd14f71427d1e84f3dd0314c0f7b2291e5b200ac8c7c3b92560405160405180910390a45050565b600080610b208361065b565b90508073ffffffffffffffffffffffffffffffffffffffff168473ffffffffffffffffffffffffffffffffffffffff161480610b625750610b61818561090a565b5b80610ba057508373ffffffffffffffffffffffffffffffffffffffff16610b8884610467565b73ffffffffffffffffffffffffffffffffffffffff16145b91505092915050565b8273ffffffffffffffffffffffffffffffffffffffff16610bc98261065b565b73ffffffffffffffffffffffffffffffffffffffff1614610c1f576040517f08c379a0000000000000000000000000000000000000000000000000000000008152600401610c16906122a0565b60405180910390fd5b600073ffffffffffffffffffffffffffffffffffffffff168273ffffffffffffffffffffffffffffffffffffffff1603610c8e576040517f08c379a0000000000000000000000000000000000000000000000000000000008152600401610c8590612332565b60405180910390fd5b610c9b8383836001611228565b8273ffffffffffffffffffffffffffffffffffffffff16610cbb8261065b565b73ffffffffffffffffffffffffffffffffffffffff1614610d11576040517f08c379a0000000000000000000000000000000000000000000000000000000008152600401610d08906122a0565b60405180910390fd5b6004600082815260200190815260200160002060006101000a81549073ffffffffffffffffffffffffffffffffffffffff02191690556001600360008573ffffffffffffffffffffffffffffffffffffffff1673ffffffffffffffffffffffffffffffffffffffff168152602001908152602001600020600082825403925050819055506001600360008473ffffffffffffffffffffffffffffffffffffffff1673ffffffffffffffffffffffffffffffffffffffff16815260200190815260200160002060008282540192505081905550816002600083815260200190815260200160002060006101000a81548173ffffffffffffffffffffffffffffffffffffffff021916908373ffffffffffffffffffffffffffffffffffffffff160217905550808273ffffffffffffffffffffffffffffffffffffffff168473ffffffffffffffffffffffffffffffffffffffff167fddf252ad1be2c89b69c2b068fc378daa952ba7f163c4a11628f55a4df523b3ef60405160405180910390a4610e9d838383600161134e565b505050565b610eac8383611354565b610eb96000848484611571565b610ef8576040517f08c379a0000000000000000000000000000000000000000000000000000000008152600401610eef906123c4565b60405180910390fd5b505050565b60006002600083815260200190815260200160002060009054906101000a900473ffffffffffffffffffffffffffffffffffffffff169050919050565b8173ffffffffffffffffffffffffffffffffffffffff168373ffffffffffffffffffffffffffffffffffffffff1603610fa8576040517f08c379a0000000000000000000000000000000000000000000000000000000008152600401610f9f90612430565b60405180910390fd5b80600560008573ffffffffffffffffffffffffffffffffffffffff1673ffffffffffffffffffffffffffffffffffffffff16815260200190815260200160002060008473ffffffffffffffffffffffffffffffffffffffff1673ffffffffffffffffffffffffffffffffffffffff16815260200190815260200160002060006101000a81548160ff0219169083151502179055508173ffffffffffffffffffffffffffffffffffffffff168373ffffffffffffffffffffffffffffffffffffffff167f17307eab39ab6107e8899845ad3d59bd9653f200f220920489ca2b5937696c31836040516110999190611922565b60405180910390a3505050565b6110b1848484610ba9565b6110bd84848484611571565b6110fc576040517f08c379a00000000000000000000000000000000000000000000000000000000081526004016110f3906123c4565b60405180910390fd5b50505050565b606060405180602001604052806000815250905090565b606060006001611128846116f8565b01905060008167ffffffffffffffff81111561114757611146611c3a565b5b6040519080825280601f01601f1916602001820160405280156111795781602001600182028036833780820191505090505b509050600082602001820190505b6001156111dc578080600190039150507f3031323334353637383961626364656600000000000000000000000000000000600a86061a8153600a85816111d0576111cf612450565b5b04945060008503611187575b819350505050919050565b60008073ffffffffffffffffffffffffffffffffffffffff1661120983610efd565b73ffffffffffffffffffffffffffffffffffffffff1614159050919050565b600181111561134857600073ffffffffffffffffffffffffffffffffffffffff168473ffffffffffffffffffffffffffffffffffffffff16146112bc5780600360008673ffffffffffffffffffffffffffffffffffffffff1673ffffffffffffffffffffffffffffffffffffffff16815260200190815260200160002060008282546112b491906124ae565b925050819055505b600073ffffffffffffffffffffffffffffffffffffffff168373ffffffffffffffffffffffffffffffffffffffff16146113475780600360008573ffffffffffffffffffffffffffffffffffffffff1673ffffffffffffffffffffffffffffffffffffffff168152602001908152602001600020600082825461133f91906124e2565b925050819055505b5b50505050565b50505050565b600073ffffffffffffffffffffffffffffffffffffffff168273ffffffffffffffffffffffffffffffffffffffff16036113c3576040517f08c379a00000000000000000000000000000000000000000000000000000000081526004016113ba90612562565b60405180910390fd5b6113cc816111e7565b1561140c576040517f08c379a0000000000000000000000000000000000000000000000000000000008152600401611403906125ce565b60405180910390fd5b61141a600083836001611228565b611423816111e7565b15611463576040517f08c379a000000000000000000000000000000000000000000000000000000000815260040161145a906125ce565b60405180910390fd5b6001600360008473ffffffffffffffffffffffffffffffffffffffff1673ffffffffffffffffffffffffffffffffffffffff16815260200190815260200160002060008282540192505081905550816002600083815260200190815260200160002060006101000a81548173ffffffffffffffffffffffffffffffffffffffff021916908373ffffffffffffffffffffffffffffffffffffffff160217905550808273ffffffffffffffffffffffffffffffffffffffff16600073ffffffffffffffffffffffffffffffffffffffff167fddf252ad1be2c89b69c2b068fc378daa952ba7f163c4a11628f55a4df523b3ef60405160405180910390a461156d60008383600161134e565b5050565b60006115928473ffffffffffffffffffffffffffffffffffffffff1661184b565b156116eb578373ffffffffffffffffffffffffffffffffffffffff1663150b7a026115bb610a53565b8786866040518563ffffffff1660e01b81526004016115dd9493929190612643565b6020604051808303816000875af192505050801561161957506040513d601f19601f8201168201806040525081019061161691906126a4565b60015b61169b573d8060008114611649576040519150601f19603f3d011682016040523d82523d6000602084013e61164e565b606091505b506000815103611693576040517f08c379a000000000000000000000000000000000000000000000000000000000815260040161168a906123c4565b60405180910390fd5b805181602001fd5b63150b7a0260e01b7bffffffffffffffffffffffffffffffffffffffffffffffffffffffff1916817bffffffffffffffffffffffffffffffffffffffffffffffffffffffff1916149150506116f0565b600190505b949350505050565b600080600090507a184f03e93ff9f4daa797ed6e38ed64bf6a1f0100000000000000008310611756577a184f03e93ff9f4daa797ed6e38ed64bf6a1f010000000000000000838161174c5761174b612450565b5b0492506040810190505b6d04ee2d6d415b85acef81000000008310611793576d04ee2d6d415b85acef8100000000838161178957611788612450565b5b0492506020810190505b662386f26fc1000083106117c257662386f26fc1000083816117b8576117b7612450565b5b0492506010810190505b6305f5e10083106117eb576305f5e10083816117e1576117e0612450565b5b0492506008810190505b612710831061181057612710838161180657611805612450565b5b0492506004810190505b60648310611833576064838161182957611828612450565b5b0492506002810190505b600a8310611842576001810190505b80915050919050565b6000808273ffffffffffffffffffffffffffffffffffffffff163b119050919050565b6000604051905090565b600080fd5b600080fd5b60007fffffffff0000000000000000000000000000000000000000000000000000000082169050919050565b6118b781611882565b81146118c257600080fd5b50565b6000813590506118d4816118ae565b92915050565b6000602082840312156118f0576118ef611878565b5b60006118fe848285016118c5565b91505092915050565b60008115159050919050565b61191c81611907565b82525050565b60006020820190506119376000830184611913565b92915050565b600081519050919050565b600082825260208201905092915050565b60005b8381101561197757808201518184015260208101905061195c565b60008484015250505050565b6000601f19601f8301169050919050565b600061199f8261193d565b6119a98185611948565b93506119b9818560208601611959565b6119c281611983565b840191505092915050565b600060208201905081810360008301526119e78184611994565b905092915050565b6000819050919050565b611a02816119ef565b8114611a0d57600080fd5b50565b600081359050611a1f816119f9565b92915050565b600060208284031215611a3b57611a3a611878565b5b6000611a4984828501611a10565b91505092915050565b600073ffffffffffffffffffffffffffffffffffffffff82169050919050565b6000611a7d82611a52565b9050919050565b611a8d81611a72565b82525050565b6000602082019050611aa86000830184611a84565b92915050565b611ab781611a72565b8114611ac257600080fd5b50565b600081359050611ad481611aae565b92915050565b60008060408385031215611af157611af0611878565b5b6000611aff85828601611ac5565b9250506020611b1085828601611a10565b9150509250929050565b600080600060608486031215611b3357611b32611878565b5b6000611b4186828701611ac5565b9350506020611b5286828701611ac5565b9250506040611b6386828701611a10565b9150509250925092565b600060208284031215611b8357611b82611878565b5b6000611b9184828501611ac5565b91505092915050565b611ba3816119ef565b82525050565b6000602082019050611bbe6000830184611b9a565b92915050565b611bcd81611907565b8114611bd857600080fd5b50565b600081359050611bea81611bc4565b92915050565b60008060408385031215611c0757611c06611878565b5b6000611c1585828601611ac5565b9250506020611c2685828601611bdb565b9150509250929050565b600080fd5b600080fd5b7f4e487b7100000000000000000000000000000000000000000000000000000000600052604160045260246000fd5b611c7282611983565b810181811067ffffffffffffffff82111715611c9157611c90611c3a565b5b80604052505050565b6000611ca461186e565b9050611cb08282611c69565b919050565b600067ffffffffffffffff821115611cd057611ccf611c3a565b5b611cd982611983565b9050602081019050919050565b82818337600083830152505050565b6000611d08611d0384611cb5565b611c9a565b905082815260208101848484011115611d2457611d23611c35565b5b611d2f848285611ce6565b509392505050565b600082601f830112611d4c57611d4b611c30565b5b8135611d5c848260208601611cf5565b91505092915050565b60008060008060808587031215611d7f57611d7e611878565b5b6000611d8d87828801611ac5565b9450506020611d9e87828801611ac5565b9350506040611daf87828801611a10565b925050606085013567ffffffffffffffff811115611dd057611dcf61187d565b5b611ddc87828801611d37565b91505092959194509250565b60008060408385031215611dff57611dfe611878565b5b6000611e0d85828601611ac5565b9250506020611e1e85828601611ac5565b9150509250929050565b7f4e487b7100000000000000000000000000000000000000000000000000000000600052602260045260246000fd5b60006002820490506001821680611e6f57607f821691505b602082108103611e8257611e81611e28565b5b50919050565b7f4552433732313a20617070726f76616c20746f2063757272656e74206f776e6560008201527f7200000000000000000000000000000000000000000000000000000000000000602082015250565b6000611ee4602183611948565b9150611eef82611e88565b604082019050919050565b60006020820190508181036000830152611f1381611ed7565b9050919050565b7f4552433732313a20617070726f76652063616c6c6572206973206e6f7420746f60008201527f6b656e206f776e6572206f7220617070726f76656420666f7220616c6c000000602082015250565b6000611f76603d83611948565b9150611f8182611f1a565b604082019050919050565b60006020820190508181036000830152611fa581611f69565b9050919050565b7f4d79455243373231546f6b656e3a3a3a3a2063616c6c6572206973206e6f742060008201527f746f6b656e206f776e6572206f7220617070726f766564000000000000000000602082015250565b6000612008603783611948565b915061201382611fac565b604082019050919050565b6000602082019050818103600083015261203781611ffb565b9050919050565b7f4552433732313a20696e76616c696420746f6b656e2049440000000000000000600082015250565b6000612074601883611948565b915061207f8261203e565b602082019050919050565b600060208201905081810360008301526120a381612067565b9050919050565b7f4552433732313a2061646472657373207a65726f206973206e6f74206120766160008201527f6c6964206f776e65720000000000000000000000000000000000000000000000602082015250565b6000612106602983611948565b9150612111826120aa565b604082019050919050565b60006020820190508181036000830152612135816120f9565b9050919050565b7f4552433732313a2063616c6c6572206973206e6f7420746f6b656e206f776e6560008201527f72206f7220617070726f76656400000000000000000000000000000000000000602082015250565b6000612198602d83611948565b91506121a38261213c565b604082019050919050565b600060208201905081810360008301526121c78161218b565b9050919050565b600081905092915050565b60006121e48261193d565b6121ee81856121ce565b93506121fe818560208601611959565b80840191505092915050565b600061221682856121d9565b915061222282846121d9565b91508190509392505050565b7f4552433732313a207472616e736665722066726f6d20696e636f72726563742060008201527f6f776e6572000000000000000000000000000000000000000000000000000000602082015250565b600061228a602583611948565b91506122958261222e565b604082019050919050565b600060208201905081810360008301526122b98161227d565b9050919050565b7f4552433732313a207472616e7366657220746f20746865207a65726f2061646460008201527f7265737300000000000000000000000000000000000000000000000000000000602082015250565b600061231c602483611948565b9150612327826122c0565b604082019050919050565b6000602082019050818103600083015261234b8161230f565b9050919050565b7f4552433732313a207472616e7366657220746f206e6f6e20455243373231526560008201527f63656976657220696d706c656d656e7465720000000000000000000000000000602082015250565b60006123ae603283611948565b91506123b982612352565b604082019050919050565b600060208201905081810360008301526123dd816123a1565b9050919050565b7f4552433732313a20617070726f766520746f2063616c6c657200000000000000600082015250565b600061241a601983611948565b9150612425826123e4565b602082019050919050565b600060208201905081810360008301526124498161240d565b9050919050565b7f4e487b7100000000000000000000000000000000000000000000000000000000600052601260045260246000fd5b7f4e487b7100000000000000000000000000000000000000000000000000000000600052601160045260246000fd5b60006124b9826119ef565b91506124c4836119ef565b92508282039050818111156124dc576124db61247f565b5b92915050565b60006124ed826119ef565b91506124f8836119ef565b92508282019050808211156125105761250f61247f565b5b92915050565b7f4552433732313a206d696e7420746f20746865207a65726f2061646472657373600082015250565b600061254c602083611948565b915061255782612516565b602082019050919050565b6000602082019050818103600083015261257b8161253f565b9050919050565b7f4552433732313a20746f6b656e20616c7265616479206d696e74656400000000600082015250565b60006125b8601c83611948565b91506125c382612582565b602082019050919050565b600060208201905081810360008301526125e7816125ab565b9050919050565b600081519050919050565b600082825260208201905092915050565b6000612615826125ee565b61261f81856125f9565b935061262f818560208601611959565b61263881611983565b840191505092915050565b60006080820190506126586000830187611a84565b6126656020830186611a84565b6126726040830185611b9a565b8181036060830152612684818461260a565b905095945050505050565b60008151905061269e816118ae565b92915050565b6000602082840312156126ba576126b9611878565b5b60006126c88482850161268f565b9150509291505056fea2646970667358221220b0dddbf4ad1f83bff09540a4c9635040c18588eff9baac7d8a4f808034e1220b64736f6c63430008110033",
  "immutableReferences": {},
  "source": "// SPDX-License-Identifier: MIT\npragma solidity 0.8.17;\n\nimport \"@openzeppelin/contracts/token/ERC721/ERC721.sol\";\nimport \"@openzeppelin/contracts/token/ERC721/IERC721.sol\";\nimport \"./Ticket.sol\";\n\ncontract MyERC721Token is ERC721 {\n    constructor() ERC721(\"MyERC721Token\", \"MTK\") {}\n\n    function mint(address to, uint256 tokenId) public {\n        _safeMint(to, tokenId, \"\");\n    }\n\n    function transferFrom(\n        address from,\n        address to,\n        uint256 tokenId\n    ) public virtual override {\n        require(\n            _isApprovedOrOwner(from, tokenId),\n            \"MyERC721Token:::: caller is not token owner or approved\"\n        );\n\n        _transfer(from, to, tokenId);\n    }\n}\n\ncontract Manager {\n    event TicketCreated(address ticketOwner);\n\n    MyERC721Token private ticketERC721;\n    Ticket[] private tickets;\n    uint256 private ticketPriceTax;\n\n    constructor() {\n        ticketPriceTax = 5;\n        ticketERC721 = new MyERC721Token();\n    }\n\n    receive() external payable {}\n\n    function createTicket() public {\n        string memory ticketName = \"ticket1\";\n        uint256 date = block.timestamp;\n        string memory eventDescription = \"description\";\n        EventType eventType;\n        TicketStatus status;\n        TransferStatus transferStatus;\n\n        address _owner = msg.sender;\n\n        Ticket _ticket = new Ticket(\n            ticketName,\n            date,\n            eventDescription,\n            eventType,\n            status,\n            transferStatus,\n            _owner\n        );\n\n        ticketERC721.mint(_owner, _ticket.getId());\n        tickets.push(_ticket);\n    }\n\n    function showAllTickets() public view returns (Ticket[] memory) {\n        return tickets;\n    }\n\n    function showTicketsByAddress(address addr)\n        public\n        view\n        returns (Ticket[] memory)\n    {\n        uint256 count;\n        for (uint256 i = 0; i < tickets.length; i++) {\n            if (tickets[i].getOwner() == addr) {\n                count++;\n            }\n        }\n\n        Ticket[] memory result = new Ticket[](count);\n        uint256 j = 0;\n        for (uint256 i = 0; i < tickets.length; i++) {\n            if (tickets[i].getOwner() == addr) {\n                result[j++] = tickets[i];\n                if (j == count) {\n                    break;\n                }\n            }\n        }\n        return result;\n    }\n\n    function transferTicket(Ticket _ticket, address _newOwner) public {\n        require(\n            _ticket.getTransferStatus() == TransferStatus.TRANSFERIBLE,\n            \"Manager: El ticket no es transferible\"\n        );\n        ticketERC721.transferFrom(\n            _ticket.getOwner(),\n            _newOwner,\n            _ticket.getId()\n        );\n        _ticket.changeOwner(_newOwner);\n    }\n\n    function changeTicketPrice(Ticket _ticket) public payable {\n        uint256 newPrice = msg.value;\n        address payable ticketAddr = payable(address(_ticket));\n\n        uint256 commission = (newPrice * ticketPriceTax) / 100;\n        (bool success, ) = ticketAddr.call{value: newPrice - commission}(\"\");\n        require(success);\n\n        _ticket.changePrice(newPrice);\n    }\n\n    function showTicketInformation(Ticket _ticket)\n        public\n        view\n        returns (\n            uint256,\n            string memory,\n            uint256,\n            uint256,\n            string memory,\n            EventType,\n            TicketStatus,\n            address\n        )\n    {\n        return _ticket.showInformation();\n    }\n\n    function showStatistics() public view returns (uint256, uint256) {\n        uint256 totalPrice;\n        for (uint256 i = 0; i < tickets.length; i++) {\n            totalPrice += tickets[i].getPrice();\n        }\n\n        return (tickets.length, totalPrice);\n    }\n\n    // function getTicketBalance(Ticket _ticket) public view returns (uint256) {\n    //     return address(_ticket).balance;\n    // }\n\n    // function payTicket(Ticket _ticket, uint256 amount) public payable {\n    //     (bool sent, ) = address(_ticket).call{value: amount}(\"\");\n    //     require(sent, \"Failed to send Ether\");\n    // }\n\n    function removeTicket(uint256 index) internal {\n        if (index >= tickets.length) return;\n\n        Ticket _ticket = tickets[index];\n\n        tickets[index] = tickets[tickets.length - 1];\n        tickets.pop();\n\n        ticketERC721.transferFrom(\n            _ticket.getOwner(),\n            address(this),\n            _ticket.getId()\n        );\n    }\n\n    function ownerOf(Ticket ticket) public view returns (address) {\n        return ticketERC721.ownerOf(ticket.getId());\n    }\n}\n",
  "sourcePath": "C:\\Users\\chmer\\Downloads\\INCLUIT\\ejercicio_integrador\\contracts\\Manager.sol",
  "compiler": {
    "name": "solc",
    "version": "0.8.17+commit.8df45f5f.Emscripten.clang"
  },
  "schemaVersion": "3.4.10",
  "updatedAt": "2022-11-13T02:35:31.199Z",
  "devdoc": {
    "kind": "dev",
    "methods": {},
    "version": 1
  },
  "userdoc": {
    "kind": "user",
    "methods": {},
    "version": 1
  }
}