{
  "contractName": "Ticket",
  "abi": [
    {
      "inputs": [
        {
          "internalType": "string",
          "name": "_eventName",
          "type": "string"
        },
        {
          "internalType": "uint256",
          "name": "_eventDate",
          "type": "uint256"
        },
        {
          "internalType": "string",
          "name": "_eventDescription",
          "type": "string"
        },
        {
          "internalType": "enum EventType",
          "name": "_eventType",
          "type": "uint8"
        },
        {
          "internalType": "enum TicketStatus",
          "name": "_status",
          "type": "uint8"
        },
        {
          "internalType": "enum TransferStatus",
          "name": "_transferStatus",
          "type": "uint8"
        },
        {
          "internalType": "address",
          "name": "_owner",
          "type": "address"
        }
      ],
      "stateMutability": "nonpayable",
      "type": "constructor"
    },
    {
      "stateMutability": "payable",
      "type": "receive"
    },
    {
      "inputs": [
        {
          "internalType": "uint256",
          "name": "_newPrice",
          "type": "uint256"
        }
      ],
      "name": "changePrice",
      "outputs": [],
      "stateMutability": "nonpayable",
      "type": "function"
    },
    {
      "inputs": [
        {
          "internalType": "enum TransferStatus",
          "name": "_transferStatus",
          "type": "uint8"
        }
      ],
      "name": "changeTranserStatus",
      "outputs": [],
      "stateMutability": "nonpayable",
      "type": "function"
    },
    {
      "inputs": [
        {
          "internalType": "enum TicketStatus",
          "name": "_status",
          "type": "uint8"
        }
      ],
      "name": "changeStatus",
      "outputs": [],
      "stateMutability": "nonpayable",
      "type": "function"
    },
    {
      "inputs": [
        {
          "internalType": "address",
          "name": "_newOwner",
          "type": "address"
        }
      ],
      "name": "changeOwner",
      "outputs": [],
      "stateMutability": "nonpayable",
      "type": "function"
    },
    {
      "inputs": [],
      "name": "showInformation",
      "outputs": [
        {
          "internalType": "uint256",
          "name": "",
          "type": "uint256"
        },
        {
          "internalType": "string",
          "name": "",
          "type": "string"
        },
        {
          "internalType": "uint256",
          "name": "",
          "type": "uint256"
        },
        {
          "internalType": "uint256",
          "name": "",
          "type": "uint256"
        },
        {
          "internalType": "string",
          "name": "",
          "type": "string"
        },
        {
          "internalType": "enum EventType",
          "name": "",
          "type": "uint8"
        },
        {
          "internalType": "enum TicketStatus",
          "name": "",
          "type": "uint8"
        },
        {
          "internalType": "address",
          "name": "",
          "type": "address"
        }
      ],
      "stateMutability": "view",
      "type": "function"
    },
    {
      "inputs": [],
      "name": "getStatus",
      "outputs": [
        {
          "internalType": "enum TicketStatus",
          "name": "",
          "type": "uint8"
        }
      ],
      "stateMutability": "view",
      "type": "function"
    },
    {
      "inputs": [],
      "name": "getTransferStatus",
      "outputs": [
        {
          "internalType": "enum TransferStatus",
          "name": "",
          "type": "uint8"
        }
      ],
      "stateMutability": "view",
      "type": "function"
    },
    {
      "inputs": [],
      "name": "getOwner",
      "outputs": [
        {
          "internalType": "address",
          "name": "",
          "type": "address"
        }
      ],
      "stateMutability": "view",
      "type": "function"
    },
    {
      "inputs": [],
      "name": "getPrice",
      "outputs": [
        {
          "internalType": "uint256",
          "name": "",
          "type": "uint256"
        }
      ],
      "stateMutability": "view",
      "type": "function"
    },
    {
      "inputs": [],
      "name": "getId",
      "outputs": [
        {
          "internalType": "uint256",
          "name": "",
          "type": "uint256"
        }
      ],
      "stateMutability": "view",
      "type": "function"
    }
  ],
  "bytecode": "0x60806040523480156200001157600080fd5b506040516200128a3803806200128a833981810160405281019062000037919062000426565b866001908162000048919062000758565b5085600281905550846003908162000061919062000758565b5083600460006101000a81548160ff021916908360028111156200008a57620000896200083f565b5b021790555082600660006101000a81548160ff02191690836002811115620000b757620000b66200083f565b5b021790555081600660016101000a81548160ff02191690836001811115620000e457620000e36200083f565b5b021790555080600660026101000a81548173ffffffffffffffffffffffffffffffffffffffff021916908373ffffffffffffffffffffffffffffffffffffffff1602179055506200013a6200014760201b60201c565b50505050505050620008b0565b426040516020016200015a919062000893565b6040516020818303038152906040528051906020012060001c600081905550565b6000604051905090565b600080fd5b600080fd5b600080fd5b600080fd5b6000601f19601f8301169050919050565b7f4e487b7100000000000000000000000000000000000000000000000000000000600052604160045260246000fd5b620001e48262000199565b810181811067ffffffffffffffff82111715620002065762000205620001aa565b5b80604052505050565b60006200021b6200017b565b9050620002298282620001d9565b919050565b600067ffffffffffffffff8211156200024c576200024b620001aa565b5b620002578262000199565b9050602081019050919050565b60005b838110156200028457808201518184015260208101905062000267565b60008484015250505050565b6000620002a7620002a1846200022e565b6200020f565b905082815260208101848484011115620002c657620002c562000194565b5b620002d384828562000264565b509392505050565b600082601f830112620002f357620002f26200018f565b5b81516200030584826020860162000290565b91505092915050565b6000819050919050565b62000323816200030e565b81146200032f57600080fd5b50565b600081519050620003438162000318565b92915050565b600381106200035757600080fd5b50565b6000815190506200036b8162000349565b92915050565b600381106200037f57600080fd5b50565b600081519050620003938162000371565b92915050565b60028110620003a757600080fd5b50565b600081519050620003bb8162000399565b92915050565b600073ffffffffffffffffffffffffffffffffffffffff82169050919050565b6000620003ee82620003c1565b9050919050565b6200040081620003e1565b81146200040c57600080fd5b50565b6000815190506200042081620003f5565b92915050565b600080600080600080600060e0888a03121562000448576200044762000185565b5b600088015167ffffffffffffffff8111156200046957620004686200018a565b5b620004778a828b01620002db565b97505060206200048a8a828b0162000332565b965050604088015167ffffffffffffffff811115620004ae57620004ad6200018a565b5b620004bc8a828b01620002db565b9550506060620004cf8a828b016200035a565b9450506080620004e28a828b0162000382565b93505060a0620004f58a828b01620003aa565b92505060c0620005088a828b016200040f565b91505092959891949750929550565b600081519050919050565b7f4e487b7100000000000000000000000000000000000000000000000000000000600052602260045260246000fd5b600060028204905060018216806200056a57607f821691505b60208210810362000580576200057f62000522565b5b50919050565b60008190508160005260206000209050919050565b60006020601f8301049050919050565b600082821b905092915050565b600060088302620005ea7fffffffffffffffffffffffffffffffffffffffffffffffffffffffffffffffff82620005ab565b620005f68683620005ab565b95508019841693508086168417925050509392505050565b6000819050919050565b600062000639620006336200062d846200030e565b6200060e565b6200030e565b9050919050565b6000819050919050565b620006558362000618565b6200066d620006648262000640565b848454620005b8565b825550505050565b600090565b6200068462000675565b620006918184846200064a565b505050565b5b81811015620006b957620006ad6000826200067a565b60018101905062000697565b5050565b601f8211156200070857620006d28162000586565b620006dd846200059b565b81016020851015620006ed578190505b62000705620006fc856200059b565b83018262000696565b50505b505050565b600082821c905092915050565b60006200072d600019846008026200070d565b1980831691505092915050565b60006200074883836200071a565b9150826002028217905092915050565b620007638262000517565b67ffffffffffffffff8111156200077f576200077e620001aa565b5b6200078b825462000551565b62000798828285620006bd565b600060209050601f831160018114620007d05760008415620007bb578287015190505b620007c785826200073a565b86555062000837565b601f198416620007e08662000586565b60005b828110156200080a57848901518255600182019150602085019450602081019050620007e3565b868310156200082a578489015162000826601f8916826200071a565b8355505b6001600288020188555050505b505050505050565b7f4e487b7100000000000000000000000000000000000000000000000000000000600052602160045260246000fd5b6000819050919050565b6200088d62000887826200030e565b6200086e565b82525050565b6000620008a1828462000878565b60208201915081905092915050565b6109ca80620008c06000396000f3fe6080604052600436106100955760003560e01c806395bc95381161005957806395bc95381461017657806398d5fdca1461019f578063a2b40d19146101ca578063a6f9dae1146101f3578063f15358941461021c5761009c565b80631a6fb342146100a15780634e69d560146100cc5780635b8551ea146100f75780635d1ca63114610120578063893d20e81461014b5761009c565b3661009c57005b600080fd5b3480156100ad57600080fd5b506100b661024e565b6040516100c39190610567565b60405180910390f35b3480156100d857600080fd5b506100e1610265565b6040516100ee91906105ca565b60405180910390f35b34801561010357600080fd5b5061011e6004803603810190610119919061060f565b61027c565b005b34801561012c57600080fd5b506101356102a9565b6040516101429190610655565b60405180910390f35b34801561015757600080fd5b506101606102b2565b60405161016d91906106b1565b60405180910390f35b34801561018257600080fd5b5061019d600480360381019061019891906106f1565b6102dc565b005b3480156101ab57600080fd5b506101b4610309565b6040516101c19190610655565b60405180910390f35b3480156101d657600080fd5b506101f160048036038101906101ec919061074a565b610313565b005b3480156101ff57600080fd5b5061021a600480360381019061021591906107a3565b61031d565b005b34801561022857600080fd5b50610231610361565b6040516102459897969594939291906108a8565b60405180910390f35b6000600660019054906101000a900460ff16905090565b6000600660009054906101000a900460ff16905090565b80600660016101000a81548160ff021916908360018111156102a1576102a06104f0565b5b021790555050565b60008054905090565b6000600660029054906101000a900473ffffffffffffffffffffffffffffffffffffffff16905090565b80600660006101000a81548160ff02191690836002811115610301576103006104f0565b5b021790555050565b6000600554905090565b8060058190555050565b80600660026101000a81548173ffffffffffffffffffffffffffffffffffffffff021916908373ffffffffffffffffffffffffffffffffffffffff16021790555050565b6000606060008060606000806000805460016002546005546003600460009054906101000a900460ff16600660009054906101000a900460ff16600660029054906101000a900473ffffffffffffffffffffffffffffffffffffffff168680546103ca90610963565b80601f01602080910402602001604051908101604052809291908181526020018280546103f690610963565b80156104435780601f1061041857610100808354040283529160200191610443565b820191906000526020600020905b81548152906001019060200180831161042657829003601f168201915b5050505050965083805461045690610963565b80601f016020809104026020016040519081016040528092919081815260200182805461048290610963565b80156104cf5780601f106104a4576101008083540402835291602001916104cf565b820191906000526020600020905b8154815290600101906020018083116104b257829003601f168201915b50505050509350975097509750975097509750975097509091929394959697565b7f4e487b7100000000000000000000000000000000000000000000000000000000600052602160045260246000fd5b600281106105305761052f6104f0565b5b50565b60008190506105418261051f565b919050565b600061055182610533565b9050919050565b61056181610546565b82525050565b600060208201905061057c6000830184610558565b92915050565b60038110610593576105926104f0565b5b50565b60008190506105a482610582565b919050565b60006105b482610596565b9050919050565b6105c4816105a9565b82525050565b60006020820190506105df60008301846105bb565b92915050565b600080fd5b600281106105f757600080fd5b50565b600081359050610609816105ea565b92915050565b600060208284031215610625576106246105e5565b5b6000610633848285016105fa565b91505092915050565b6000819050919050565b61064f8161063c565b82525050565b600060208201905061066a6000830184610646565b92915050565b600073ffffffffffffffffffffffffffffffffffffffff82169050919050565b600061069b82610670565b9050919050565b6106ab81610690565b82525050565b60006020820190506106c660008301846106a2565b92915050565b600381106106d957600080fd5b50565b6000813590506106eb816106cc565b92915050565b600060208284031215610707576107066105e5565b5b6000610715848285016106dc565b91505092915050565b6107278161063c565b811461073257600080fd5b50565b6000813590506107448161071e565b92915050565b6000602082840312156107605761075f6105e5565b5b600061076e84828501610735565b91505092915050565b61078081610690565b811461078b57600080fd5b50565b60008135905061079d81610777565b92915050565b6000602082840312156107b9576107b86105e5565b5b60006107c78482850161078e565b91505092915050565b600081519050919050565b600082825260208201905092915050565b60005b8381101561080a5780820151818401526020810190506107ef565b60008484015250505050565b6000601f19601f8301169050919050565b6000610832826107d0565b61083c81856107db565b935061084c8185602086016107ec565b61085581610816565b840191505092915050565b60038110610871576108706104f0565b5b50565b600081905061088282610860565b919050565b600061089282610874565b9050919050565b6108a281610887565b82525050565b6000610100820190506108be600083018b610646565b81810360208301526108d0818a610827565b90506108df6040830189610646565b6108ec6060830188610646565b81810360808301526108fe8187610827565b905061090d60a0830186610899565b61091a60c08301856105bb565b61092760e08301846106a2565b9998505050505050505050565b7f4e487b7100000000000000000000000000000000000000000000000000000000600052602260045260246000fd5b6000600282049050600182168061097b57607f821691505b60208210810361098e5761098d610934565b5b5091905056fea2646970667358221220aa896fc4dc7015bf56aa0c21752a1ccc65a1feeb68d6cb68e43f362f5ab9951564736f6c63430008110033",
  "immutableReferences": {},
  "source": "// SPDX-License-Identifier: MIT\npragma solidity 0.8.17;\n\nenum TransferStatus {\n    TRANSFERIBLE,\n    NO_TRANSFERIBLE\n}\n\nenum EventType {\n    SPORTS,\n    MUSIC,\n    CINEMA\n}\n\nenum TicketStatus {\n    VALID,\n    USED,\n    EXPIRED\n}\n\ncontract Ticket {\n    uint256 private id;\n    string private eventName;\n    uint256 private eventDate;\n    string private eventDescription;\n    EventType private eventType;\n    uint256 private price;\n    TicketStatus private status;\n    TransferStatus private transferStatus;\n    address private owner;\n\n    receive() external payable {}\n\n    constructor(\n        string memory _eventName,\n        uint256 _eventDate,\n        string memory _eventDescription,\n        EventType _eventType,\n        TicketStatus _status,\n        TransferStatus _transferStatus,\n        address _owner\n    )  {\n        eventName = _eventName;\n        eventDate = _eventDate;\n        eventDescription = _eventDescription;\n        eventType = _eventType;\n        status = _status;\n        transferStatus = _transferStatus;\n        owner = _owner;\n        generateId();\n    }\n\n    function changePrice(uint256 _newPrice) public {\n        price = _newPrice;\n    }\n\n    function changeTranserStatus(TransferStatus _transferStatus) public {\n        transferStatus = _transferStatus;\n    }\n\n    function changeStatus(TicketStatus _status) public {\n        status = _status;\n    }\n\n    function changeOwner(address _newOwner) public {\n        owner = _newOwner;\n    }\n\n    function showInformation()\n        public\n        view\n        returns (\n            uint256,\n            string memory,\n            uint256,\n            uint256,\n            string memory,\n            EventType,\n            TicketStatus,\n            address\n        )\n    {\n        return (\n            id,\n            eventName,\n            eventDate,\n            price,\n            eventDescription,\n            eventType,\n            status,\n            owner\n        );\n    }\n\n    function getStatus() public view returns (TicketStatus) {\n        return status;\n    }\n\n    function getTransferStatus() public view returns (TransferStatus) {\n        return transferStatus;\n    }\n\n    function generateId() private {\n        id = uint256(keccak256(abi.encodePacked(block.timestamp)));\n    }\n\n    function getOwner() public view returns (address) {\n        return owner;\n    }\n\n    function getPrice() public view returns (uint256) {\n        return price;\n    }\n\n    function getId() public view returns (uint256) {\n        return id;\n    }\n}\n",
  "sourcePath": "C:\\Users\\chmer\\Downloads\\INCLUIT\\ejercicio_integrador\\contracts\\Ticket.sol",
  "compiler": {
    "name": "solc",
    "version": "0.8.17+commit.8df45f5f.Emscripten.clang"
  },
  "schemaVersion": "3.4.10",
  "updatedAt": "2022-11-13T02:35:31.212Z",
  "devdoc": {
    "kind": "dev",
    "methods": {},
    "version": 1
  },
  "userdoc": {
    "kind": "user",
    "methods": {},
    "version": 1
  }
}